{
  "contractName": "Election",
  "abi": [
    {
      "constant": true,
      "inputs": [],
      "name": "candidatesCount",
      "outputs": [
        {
          "name": "",
          "type": "uint256"
        }
      ],
      "payable": false,
      "stateMutability": "view",
      "type": "function"
    },
    {
      "constant": true,
      "inputs": [
        {
          "name": "",
          "type": "uint256"
        }
      ],
      "name": "candidates",
      "outputs": [
        {
          "name": "id",
          "type": "uint256"
        },
        {
          "name": "name",
          "type": "string"
        },
        {
          "name": "voteCount",
          "type": "uint256"
        }
      ],
      "payable": false,
      "stateMutability": "view",
      "type": "function"
    },
    {
      "inputs": [],
      "payable": false,
      "stateMutability": "nonpayable",
      "type": "constructor"
    },
    {
      "constant": false,
      "inputs": [
        {
          "name": "id",
          "type": "uint256"
        }
      ],
      "name": "voteCandidate",
      "outputs": [],
      "payable": false,
      "stateMutability": "nonpayable",
      "type": "function"
    }
  ],
  "bytecode": "0x6080604052600060015534801561001557600080fd5b506100636040805190810160405280600b81526020017f43616e6469646174652031000000000000000000000000000000000000000000815250610132640100000000026401000000009004565b6100b06040805190810160405280600b81526020017f43616e6469646174652032000000000000000000000000000000000000000000815250610132640100000000026401000000009004565b6100c960016101ae640100000000026401000000009004565b6100e260016101ae640100000000026401000000009004565b6100fb60016101ae640100000000026401000000009004565b61011460026101ae640100000000026401000000009004565b61012d60026101ae640100000000026401000000009004565b610287565b60016000815480929190600101919050555060606040519081016040528060015481526020018281526020016000815250600080600154815260200190815260200160002060008201518160000155602082015181600101908051906020019061019d9291906101e2565b506040820151816002015590505050565b600154811115156101df57600080828152602001908152602001600020600201600081548092919060010191905055505b50565b828054600181600116156101000203166002900490600052602060002090601f016020900481019282601f1061022357805160ff1916838001178555610251565b82800160010185558215610251579182015b82811115610250578251825591602001919060010190610235565b5b50905061025e9190610262565b5090565b61028491905b80821115610280576000816000905550600101610268565b5090565b90565b610290806102966000396000f300608060405260043610610057576000357c0100000000000000000000000000000000000000000000000000000000900463ffffffff1680632d35a8a21461005c5780633477ee2e146100875780638c08a4dc1461013b575b600080fd5b34801561006857600080fd5b50610071610168565b6040518082815260200191505060405180910390f35b34801561009357600080fd5b506100b26004803603810190808035906020019092919050505061016e565b6040518084815260200180602001838152602001828103825284818151815260200191508051906020019080838360005b838110156100fe5780820151818401526020810190506100e3565b50505050905090810190601f16801561012b5780820380516001836020036101000a031916815260200191505b5094505050505060405180910390f35b34801561014757600080fd5b5061016660048036038101908080359060200190929190505050610230565b005b60015481565b6000602052806000526040600020600091509050806000015490806001018054600181600116156101000203166002900480601f0160208091040260200160405190810160405280929190818152602001828054600181600116156101000203166002900480156102205780601f106101f557610100808354040283529160200191610220565b820191906000526020600020905b81548152906001019060200180831161020357829003601f168201915b5050505050908060020154905083565b6001548111151561026157600080828152602001908152602001600020600201600081548092919060010191905055505b505600a165627a7a723058209d6235c844220fa31af29fc5294c9267ecd21b8933d469e6515d1b1a8b1e82760029",
  "source": "pragma solidity ^0.4.24;\n\ncontract Election {\n    // Model a Candidate\n    struct Candidate {\n        uint id;\n        string name;\n        uint voteCount;\n    }\n\n    // Store Candidates\n\n    // Fetch Candidate\n    mapping(uint => Candidate) public candidates;\n\n    // Store Candidates Count\n    uint public candidatesCount=0;\n     \n    constructor() public {\n        addCandidate(\"Candidate 1\");\n        addCandidate(\"Candidate 2\");\n        voteCandidate(1);\n        voteCandidate(1);\n        voteCandidate(1);\n        voteCandidate(2);\n        voteCandidate(2);\n    }\n\n    function addCandidate(string _name) private {\n        candidatesCount++;\n        candidates[candidatesCount] = Candidate(candidatesCount, _name, 0);\n    }\n\n    function voteCandidate(uint id) public {\n        if(id <= candidatesCount){\n            candidates[id].voteCount++;\n        }\n    }\n\n}",
  "sourcePath": "/home/aseem/Desktop/solidity-election-dapp-master/contracts/Election.sol",
  "compiler": {
    "name": "solc",
    "version": "0.4.24+commit.e67f0147.Emscripten.clang"
  },
  "schemaVersion": "3.0.16",
  "updatedAt": "2019-09-29T01:29:11.595Z",
  "devdoc": {
    "methods": {}
  },
  "userdoc": {
    "methods": {}
  }
}